:100000006BC0000087C0000085C0000083C00000F6
:1000100081C000007FC000007DC000007BC00000E8
:1000200079C0000077C0000075C0000073C00000F8
:1000300071C000006FC000000C948B0A6BC0000000
:100040008CC1000067C00000EFC0000063C000006A
:1000500061C000005FC000005DC000005BC0000028
:1000600059C0000057C0000055C0000053C0000038
:1000700051C000004FC000004DC000004BC0000048
:1000800049C0000047C0000045C00000084AD73BF7
:100090003BCE016E84BCBFFDC12F3D6C74319ABD57
:1000A00056833DDA3D00C77F11BED9E4BB4C3E917B
:1000B0006BAAAABE000000803F05A84CCDB2D44E6A
:1000C000B93836A9020C50B9918688083CA6AAAA6C
:1000D0002ABE000000803F0011241FBECFEFD0E1F8
:1000E000DEBFCDBF11E0A0E0B1E0E8E0FEE100E05E
:1000F0000BBF02C007900D92A430B107D9F729E0D9
:10010000A4E0B1E001C01D92AA34B207E1F71DD00E
:100110000C94020F75CF08958FEF8ABBDC98DE98A0
:1001200098E29BBB81BBE4E6F0E09081986090830D
:10013000E5E6F0E090819860908382B990E693B90B
:1001400087BB14BA85BB17BE08957894E4DFE4DF5B
:1001500080918B00816F80938B0080918A008A60F0
:1001600080938A001092850010928400109287007C
:100170001092860083E08EBD87B7846087BF10929F
:10018000900087E689B988E98AB98EE08093950066
:1001900082E083BF87B7816087BF12BEFFCF109216
:1001A000EE061092ED0621E030E002C0220F331F70
:1001B0008A95E2F728BB85E38A95F1F7000088B3BA
:1001C000922F9095892388BB83B390E08223932359
:1001D000892BD1F382E083BF87B7816087BF12BECE
:1001E00083B390E082239323892BD1F787B78E7F47
:1001F00087BF22B78091ED069091EE062695820F7B
:10020000911D9093EE068093ED062091ED063091BE
:10021000EE06AFE9B6E40E94DF0E929582958F70EC
:1002200089279F70892708951F920F920FB60F920A
:1002300011248F939F938CB180931B0890913C0263
:10024000933001F1943091F18F3029F18E3009F41F
:100250004BC08D3009F45DC0823381F1833309F4E2
:1002600065C08C3309F46AC0813109F470C08231F1
:1002700079F180933C029F918F910F900FBE0F9068
:100280001F90189590E09093850080938400809152
:100290001B088F30D9F610928700109286001092BA
:1002A00085001092840080911B08E3CF90E090932A
:1002B00087008093860080911B08C6CFDC98DE986B
:1002C00088E28BBB81E08093020180911B08D1CF33
:1002D00010920F0110920E0183E08EBD87B78460EB
:1002E00087BF80911B08C5CF8091840090918500C5
:1002F000C2969093850080938400809186009091AF
:100300008700C296909387008093860080911B0897
:10031000B0CF8FEF90E0909385008093840090930E
:1003200087008093860080911B08A3CFDC98DD981E
:1003300088E08BBBDE9A80911B089BCFDB98DD9811
:1003400080E58BBB1092020180911B0892CF87B78A
:100350008B7F87BF80911B088CCF1F920F920FB6A7
:100360000F9211248F939F938091ED069091EE064A
:1003700080589F4F9093EE068093ED069F918F914A
:100380000F900FBE0F901F9018958F929F92AF9273
:10039000BF92CF92DF92EF92FF920F931F93CF9372
:1003A000DF936B017A01461757070CF461C0EC012B
:1003B000C60FD71F8A010F5F1F4F080F191F812C0F
:1003C000912C5401699170E080E090E00E94AA0CA9
:1003D0009B01AC01C501B4010E94420B4B015C01C1
:1003E000C017D10779F7EC18FD08B7016F5F7F4F91
:1003F000072E000C880B990B0E94AA0C9B01AC01E4
:10040000C501B4010E940F0C2CE53FE842E45EE315
:100410000E94C30D4B015C01B701FF0C880B990BC7
:100420000E94AA0C28EB3EE145E85EE30E94C30D62
:100430006B017C0120E030E040EA51E4C501B401E9
:100440000E94410B9B01AC01C701B6010E94C30D84
:100450000E94770CCB01DF91CF911F910F91FF90FC
:10046000EF90DF90CF90BF90AF909F908F900895C6
:10047000812C912C5401B7CFCF93DF93882331F097
:10048000813009F4C5C0DF91CF91089587B78B7F84
:1004900087BF1092870010928600109285001092FC
:1004A000840097982FEF40E752E0215040405040A1
:1004B000E1F700C000005D9BFECF8EEF8CB96FEFBF
:1004C00070E782E0615070408040E1F700C00000BA
:1004D00010921B08DC98DE9858E25BBB41E0409329
:1004E000020188EC90E090938700809386009093BF
:1004F0008500809384009FEFE7E823E19150E0407E
:100500002040E1F700C000001092870010928600A2
:100510001092850010928400DB98DD9880E58BBBFB
:10052000109202016FEF79E688E1615070408040DF
:10053000E1F700C0000086E490E09093870080938C
:1005400086002AEF30E03093850020938400EFEF9F
:1005500065EE7AEAE15060407040E1F700C00000CB
:1005600010928700109286001092850010928400ED
:10057000DC98DE985BBB40930201EFEF43ED50E364
:10058000E15040405040E1F700C000003093870048
:100590002093860090938500809384006FEF75EE22
:1005A0008AEA615070408040E1F700C0000010927C
:1005B00087001092860010928500109284009FEFB1
:1005C000E3ED20E39150E0402040E1F700C000005F
:1005D000C8ECD0E00EC0D0938700C0938600D093C3
:1005E0008500C09384008FE39CE90197F1F700C078
:1005F000000083E0D4DD8B3070F7109287001092FA
:1006000086001092850010928400DF91CF910895AA
:1006100087B78B7F87BF1092870010928600109259
:1006200085001092840097989FEFE0E722E09150B8
:10063000E0402040E1F700C000005D9BFECF8EEF60
:100640008CB94FEF50E762E0415050406040E1F715
:1006500000C0000010921B08DC98DE9858E25BBBDB
:1006600041E04093020188EC90E0909387008093F2
:10067000860090938500809384007FEF87E893E164
:10068000715080409040E1F700C000001092870058
:10069000109286001092850010928400DB98DD98FD
:1006A00080E58BBB10920201EFEF29E668E1E15093
:1006B00020406040E1F700C000008AEF90E0909396
:1006C00087008093860026E430E0309385002093F5
:1006D00084007FEFE5EE6AEA7150E0406040E1F7A8
:1006E00000C00000109287001092860010928500D2
:1006F00010928400DC98DE985BBB409302017FEF90
:10070000E3ED40E37150E0404040E1F700C00000FD
:100710003093870020938600909385008093840017
:100720005FEF65EE7AEA515060407040E1F700C03B
:10073000000010928700109286001092850010929F
:1007400084008FEF93EDE0E381509040E040E1F7CB
:1007500000C00000C8ECD0E00EC0D0938700C0936A
:100760008600D0938500C09384008FE39CE90197B5
:10077000F1F700C0000083E012DD8B3070F71092BB
:1007800087001092860010928500109284003DCF61
:100790002F923F924F925F926F927F928F929F9291
:1007A000AF92BF92CF92DF92EF92FF920F931F937F
:1007B000CF93DF93CDB7DEB7A3970FB6F894DEBF24
:1007C0000FBECDBF8823E1F0813009F434C2A39677
:1007D0000FB6F894DEBF0FBECDBFDF91CF911F9152
:1007E0000F91FF90EF90DF90CF90BF90AF909F90D0
:1007F0008F907F906F905F904F903F902F900895D3
:1008000087B78B7F87BF1092870010928600109267
:1008100085001092840096982FEF30E782E02150F7
:1008200030408040E1F700C000005D9BFECF8FEFBD
:100830008CB99FEFA0E7B2E09150A040B040E1F743
:1008400000C0000010921B08EFE3FCE93197F1F7BC
:1008500000C0000080911B0892E0980F9230A0F732
:100860008E3F09F4B4CFFFEF23ED30E3F150204089
:100870003040E1F700C00000DB98DD9880E58BBBDD
:1008800010920201E0910E01F0910F01EB56FB4F27
:1008900060815D9BFECF6CB98FEF93EDA0E381503B
:1008A0009040A040E1F700C0000088EC90E09093F9
:1008B0008700809386009093850080938400BFEF2B
:1008C000E7E8F3E1B150E040F040E1F700C000009C
:1008D00070E0675D7F4F7695679580E090E00E94BD
:1008E000A80C6C8B7D8B8E8B9F8B20E335EF47E7BD
:1008F0005FE30E94C30D9B01AC016C897D898E89E9
:100900009F89C0D6962EA72EB82E892E2C893D8978
:100910004E895F89CA01B901B5D6292D3A2D4B2DD3
:10092000582DAFD66B017C019B01AC010E94C30D19
:1009300020E030E040E852E4A5D60E944A0E2B01A8
:100940003C0120E030E0A9010E94B80D18160CF01F
:10095000C0C380E090E0A0E0B1E489839A83AB83D8
:10096000BC83412C512C20E8622E2FE3722EA30170
:100970009201C701B6010E94C30D29813A814B81C2
:100980005C81F3D6688F788B898F9D8F212C312CD9
:1009900020E030E040E85FE300E010E0C12CD12C23
:1009A000E12C91ECF92E592C7A2C6B2C482CB801A7
:1009B000012E000C880B990B28A339A34AA35BA333
:1009C000C9D76D8379878A879B8728A139A14AA1D6
:1009D0005BA16C897D898E899F890E94C30D9B01D3
:1009E000AC016C897D898E899F894CD66C877D8707
:1009F0008E879F879601A7016D8179858A859B8562
:100A000040D64B015C01252D372D462D542D6C858C
:100A10007D858E859F8535D66B017C01A50194016E
:100A2000C501B4010E94C30D2B013C01A701960131
:100A3000C701B6010E94C30D9B01AC01C301B20105
:100A400021D60E944A0E69837A838B839C8320E09F
:100A500030E0A9010E94B80D18160CF0C8C0412C56
:100A6000512C60E8662E6FE3762EA3019201C5013A
:100A7000B4010E94C30D4B015C01A3019201C701A7
:100A8000B6010E94C30DA50194016FD6562E472EC4
:100A9000782E692E288D3889498D5D8DF2D520E01C
:100AA00030E04DE653E40E94C30D4B015C01298107
:100AB0003A814B815C81E6D520E030E040E251E4B0
:100AC000AED620E030E040EF51E40E94C30D26E5B1
:100AD0003EE049E450E4A3D620E030E04CE052E4AC
:100AE000D1D52BE734E14EEA5EE399D620E030E041
:100AF00040E05FE3C7D50E94260EF9D66B017C016A
:100B0000A501940169817A818B819C81BAD520E00D
:100B100030E040E251E483D620E030E040EF51E4A1
:100B20000E94C30D26E53EE049E450E478D620E07B
:100B300030E04CE052E4A6D52BE734E14EEA5EE328
:100B40006ED620E030E040E05FE39CD50E94260EA8
:100B5000CED69B01332730938700209386009601E1
:100B6000332730938500209384005D9BFECF6CB9C2
:100B70005D9BFECFCCB822E0221631044CF03FEF53
:100B800083ED90E3315080409040E1F700C00000D9
:100B9000AFEF2A1A3A0A085F1F4FBDE02B16310447
:100BA00009F440C0B101032C000C880B990BD2D67C
:100BB00026E53EE049EC50E4E6D720E030E040E0B6
:100BC00051E4E1D720E030E048E453E428D624D6CD
:100BD0009B01AC01588E488A798E6D8E5C847D8431
:100BE0006E844F84CD80D984EA84FB84E0CE662471
:100BF0006394712C20E030E0A90169817A818B81B6
:100C00009C8106D687FD02C0612C712C6627772750
:100C100066197709072E000C880B990B9BD62B01C0
:100C20003C0123CF1092870010928600109285001D
:100C300010928400CCCD87B78B7F87BF109287003E
:100C40001092860010928500109284009698EFEF23
:100C5000F0E722E0E150F0402040E1F700C0000062
:100C60005D9BFECF8FEF8CB93FEF80E792E0315074
:100C700080409040E1F700C0000010921B08AFE3F5
:100C8000BCE91197F1F700C0000080911B0892E0C9
:100C9000980F9230A0F78E3F09F499CDBFEFE3EDA6
:100CA000F0E3B150E040F040E1F700C00000DB9815
:100CB000DD9880E58BBB10920201E0910E01F0916E
:100CC0000F01E05FFE4F60815D9BFECF6CB92FEF9F
:100CD00033ED80E3215030408040E1F700C0000058
:100CE00088EC90E090938700809386009093850035
:100CF000809384009FEFA7E8B3E19150A040B040FB
:100D0000E1F700C0000070E0675D7F4F7695679562
:100D100080E090E01DD6698F7A8F8B8F9C8F20E3C7
:100D200035EF47E75FE32FD79B01AC01698D7A8DE3
:100D30008B8D9C8DA7D46D83C72ED82E9987298D36
:100D40003A8D4B8D5C8DCA01B9019CD42D813C2D0F
:100D50004D2D598596D44B015C019B01AC0113D7F5
:100D600020E030E040E852E48DD494D72B013C01E0
:100D700020E030E0A901FCD618160CF0CBC180E0D1
:100D800090E0A0E0B1E489839A83AB83BC83412CDB
:100D9000512C80E8682E8FE3782EA3019201C501C3
:100DA000B401F1D629813A814B815C81DED4688B14
:100DB0007D8F8E8F9F8F1A82198220E030E040E86D
:100DC0005FE3212C312CE12CF12C00E011EC7D8033
:100DD0006984A981BA81BD01BB0F880B990B28A337
:100DE00039A34AA35BA3B6D569877A878B879C878B
:100DF00028A139A14AA15BA1698D7A8D8B8D9C8D2B
:100E0000C2D69B01AC01698D7A8D8B8D9C8D3AD4B5
:100E10006D877E878F879C8B9701A80169857A856E
:100E20008B859C852ED44B015C01272D3C2D4D2DAF
:100E3000562D6D857E858F859C8923D46B017C0121
:100E4000A5019401C501B4019ED62B013C01A70167
:100E50009601C701B60197D69B01AC01C301B2014F
:100E600011D418D72B013C0120E030E0A90180D635
:100E700018160CF00CC180E090E0A0E8BFE38D8371
:100E80009E83AF83B8872D813E814F815885C501F0
:100E9000B40179D64B015C012D813E814F8158858B
:100EA000C701B60170D6A50194015FD46D83788F18
:100EB0008C0128893D8D4E8D5F8DE3D320E030E09D
:100EC0004DE653E460D66B017C01A3019201DAD3B5
:100ED00020E030E040E251E4A2D420E030E040EFF6
:100EE00051E451D626E53EE049E450E498D420E0B0
:100EF00030E04CE052E4C6D32BE734E14EEA5EE347
:100F00008ED420E030E040E05FE3BCD39FD6EFD446
:100F1000688B798B8A8B9B8BA889B989BD01BB0FA4
:100F2000880B990B17D54B015C01A7019601C301F2
:100F3000B201A7D320E030E040E251E470D420E0D9
:100F400030E040EF51E41FD626E53EE049E450E4AE
:100F500066D420E030E04CE052E494D32BE734E157
:100F60004EEA5EE35CD420E030E040E05FE38AD309
:100F70006DD6BDD46B017C01072E000C880B990B3C
:100F8000E9D42B013C0120E030E04FE753E4C501F8
:100F9000B401EED518160CF474C020E030E0A901BD
:100FA000C501B40135D487FD90C0B8888888998878
:100FB000992420E030E04FE753E4C301B201D8D5D3
:100FC00018160CF45AC020E030E0A901C301B201A8
:100FD0001FD487FD76C08C2D960133279092870011
:100FE0008092860030938500209384005D9BFECF25
:100FF0008CB95D9BFECFBCB8B2E02B1631044CF02F
:10100000EFEFF3ED20E3E150F0402040E1F700C0C6
:1010100000003FEF231A330A89819A8108969A8348
:1010200089839DE02916310409F4FCCDB101032C1C
:10103000000C880B990B8ED426E53EE049EC50E479
:10104000A2D520E030E040E051E49DD520E030E042
:1010500048E453E4E4D3E0D39B01AC01ED81E88B99
:10106000F88DFD8F0E8F1F8F7D84CE84DF846C887A
:10107000E984FA840B851C85ACCE2EEF30E08EEF30
:10108000ADCF3EEF832E912C4EEFB42E92CF01E0E8
:1010900010E020E030E0A901C301B201B9D387FD1F
:1010A00002C000E010E066277727601B710B072E57
:1010B000000C880B990B4ED46D837E838F839887A9
:1010C000E2CE20E030E080E089CF812C912CB12C61
:1010D00070CF01E010E020E030E0A901C301B201CF
:1010E00097D387FD02C000E010E066277727601BDA
:1010F000710B072E000C880B990B2CD42B013C0193
:1011000020E030E040E051E43ED569837A838B8370
:101110009C832DCC01E010E020E030E0A901C30168
:10112000B20176D387FD02C000E010E06627772782
:10113000601B710B072E000C880B990B0BD42B0135
:101140003C0120E030E040E051E41DD569837A8322
:101150008B839C8322CE7F928F929F92AF92BF927D
:10116000CF92DF92EF92FF920F931F93CF93DF9373
:10117000D901F70130813130A9F1E0910E01F091F0
:101180000F01C0910E01D0910F01E80FF91F2081CE
:1011900030E0C80FD91F21978881A901481B510948
:1011A000CA0157FD2FC10A978CF081E0F7018083B7
:1011B000DF91CF911F910F91FF90EF90DF90CF9033
:1011C000BF90AF909F908F907F90089580910E0177
:1011D00090910F010196F8019183808382B380582A
:1011E00082BBE6CF20910E0130910F0122303105F4
:1011F00024F2E0910E01F0910F0120910E01309147
:101200000F01E80FF91F3297E081F0E0EC01C20F07
:10121000D31F2881E21BF109F7FD66C19D01B42EA1
:101220006B01EC013A970CF4D3C0A0910E01B09180
:101230000F01E0910E01F0910F01A80FB91F8C91E1
:1012400090E0EC0FFD1F31974081841B910997FDC1
:101250004FC10A970CF0DAC080910E0190910F01F6
:10126000BC0162507109F80171836083F90140810A
:10127000518164177507D4F0FE01E40FF51F8C014E
:10128000015011090C0F1D1FDF0180E090E0AD90AF
:101290008A0D911DA017B107D1F7641B750B6F5F05
:1012A0007F4F7AD56193E017F107E1F780910E0146
:1012B00090910F010197F90191838083A0910E0114
:1012C000B0910F01E0910E01F0910F01AC0FBD1F25
:1012D00012978C9190E0EC0FFD1F31972081821BBB
:1012E000910989974CF100910E0110910F01025064
:1012F00011091016110604F54E01800E911E03C04F
:1013000001501109C9F0F4017080A2904F01872D9E
:1013100090E08A19910989976CF040910E015091E3
:101320000F0142505109B801C6012FD885369105E9
:101330000CF0E2C07A1421F3A0910E01B0910F01DC
:10134000E0910E01F0910F01AC0FBD1F12978C912F
:1013500090E0EC0FFD1F31972081821B9109899746
:101360000CF48EC000910E0110910F010250110972
:10137000101611060CF043C0C00FD11F05C09A1003
:101380003EC001501109D9F19880AA90292D30E072
:101390002A1931092932310594F340910E015091F7
:1013A0000F0142505109B801C6010E94C501C397FF
:1013B00034F38B2DDF91CF911F910F91FF90EF9020
:1013C000DF90CF90BF90AF909F908F907F9054C848
:1013D00080910E0190910F01F8019183808380919B
:1013E0000E0190910F01E0910E01F0910F01EC0FB1
:1013F000FD1F32972081C80FD91F21972883F7013D
:101400001082D6CE919581959109CDCE80910E0115
:1014100090910F01BC0162507109F80171836083E2
:10142000F9014081518164177507D4F0FE01E40F82
:10143000F51F8C01015011090C0F1D1FDF0180E009
:1014400090E0AD908A0D911DA017B107D1F7641BF4
:10145000750B6F5F7F4FA0D46193E017F107E1F741
:10146000E0910E01F0910F01A0910E01B0910F01DA
:10147000AC0FBD1F8C91EC0FFD1F3197808316CFF1
:10148000A0910E01B0910F01E0910E01F0910F01BA
:10149000AC0FBD1F12978C9190E0EC0FFD1F3197A0
:1014A0002081821B9109893D9F4FBCF4E0910E0180
:1014B000F0910F0120910E0130910F01EC0FFD1FF3
:1014C0003297808190E0C20FD31F21972881821B21
:1014D0009109893D9F4F0CF492CF8CE291E090935B
:1014E0000101809300018BCFF195E195F10996CE32
:1014F000919581959109ADCE8B2DDF91CF911F9163
:101500000F91FF90EF90DF90CF90BF90AF909F90A2
:101510008F907F903DC91F920F920FB60F921124AA
:101520000BB60F92EF92FF920F931F932F933F935F
:101530004F935F936F937F938F939F93AF93BF93DB
:10154000EF93FF937894E0910E01F0910F01809159
:10155000840090918500E35CFD4F8083E0910E0153
:10156000F0910F018091860090918700E25EF74F25
:101570008083E0910E01F0910F01E759FC4F8091BB
:101580000201808380E00E94CF00E0910E01F09183
:101590000F01EB56FB4F8083E0910E01F0910F019C
:1015A000EB56FB4F80815D9BFECF8CB981E00E94A2
:1015B000CF00E0910E01F0910F01E05FFE4F8083BC
:1015C000E0910E01F0910F01E05FFE4F80815D9B85
:1015D000FECF8CB989E0E82E81E0F82E0AE011E018
:1015E0002CE031E040E06DE372E085E994E0B3DDAA
:1015F00094E0E92E91E0F92E05E011E027E031E0DA
:1016000041E06EE178E080E191E0A5DD80910E019E
:1016100090910F01019690930F0180930E0180919C
:101620000E0190910F018B329140A1F410920F01A5
:1016300010920E0110920D0110920C0110920B01EC
:1016400010920A01109209011092080110920701EC
:1016500010920401FF91EF91BF91AF919F918F91F3
:101660007F916F915F914F913F912F911F910F91BA
:10167000FF90EF900F900BBE0F900FBE0F901F903A
:1016800018955058BB27AA270ED027C2F0D130F0AA
:10169000F5D120F031F49F3F11F41EF4C0C10EF4D7
:1016A000E095E7FBB6C1E92F3AD280F3BA1762079B
:1016B00073078407950718F071F49EF552C20EF473
:1016C000E0950B2EBA2FA02D0B01B90190010C0152
:1016D000CA01A0011124FF27591B99F0593F50F46A
:1016E000503E68F11A16F040A22F232F342F4427C2
:1016F000585FF3CF469537952795A795F0405395BA
:10170000C9F77EF41F16BA0B620B730B840BBAF089
:101710009150A1F0FF0FBB1F661F771F881FC2F7F4
:101720000EC0BA0F621F731F841F48F48795779508
:101730006795B795F7959E3F08F0B3CF9395880FBF
:1017400008F09927EE0F97958795089590D158F056
:1017500080E891E009F49EEF91D128F040E851E053
:1017600059F45EEF09C05BC1FCC1E92FE078D7D125
:1017700068F3092E052AC1F32617370748075907CA
:1017800038F00E2E07F8E02569F0E025E0640AC085
:10179000EF6307F8009407FADB01B9019D01DC0152
:1017A000CA01AD01EF934AD098D10AD05F91552379
:1017B00031F02BED3FE049E450FD49EC63CF089553
:1017C000DF93DD27B92FBF7740E85FE316161706D2
:1017D00048075B0710F4D92FCFD19F938F937F9346
:1017E0006F9396D2ECE8F0E01DD177D12F913F9125
:1017F0004F915F91D4D1DD2349F09058A2EA2AEDB0
:101800003FE049EC5FE3D0785D274DDFDF9165C1B4
:10181000DCD008F481E0089539D1E3956FC10CD094
:101820005CC12CD140F023D130F021F45F3F19F09E
:10183000F0C0511197C1F3C072D198F39923C9F345
:101840005523B1F3951B550BBB27AA2762177307C6
:10185000840738F09F5F5F4F220F331F441FAA1F7A
:10186000A9F333D00E2E3AF0E0E830D0915050403A
:10187000E695001CCAF729D0FE2F27D0660F771FE8
:10188000881FBB1F261737074807AB07B0E809F0CA
:10189000BB0B802DBF01FF2793585F4F2AF09E3F5F
:1018A000510568F0B6C05EC15F3FECF3983EDCF3D3
:1018B000869577956795B795F7959F5FC9F7880FD8
:1018C000911D9695879597F90895E1E0660F771F2A
:1018D000881FBB1F621773078407BA0720F0621BBB
:1018E000730B840BBA0BEE1F88F7E095089504D0B4
:1018F0006894B11137C108951AD188F09F5790F0BC
:10190000B92F9927B751A0F0D1F0660F771F881F24
:10191000991F1AF0BA95C9F712C0B13081F021D1E0
:10192000B1E008951EC1672F782F8827B85F39F07E
:10193000B93FCCF3869577956795B395D9F73EF483
:1019400090958095709561957F4F8F4F9F4F08952B
:10195000E89409C097FB3EF4909580957095619549
:101960007F4F8F4F9F4F9923A9F0F92F96E9BB27FF
:101970009395F695879577956795B795F111F8CF7B
:10198000FAF4BB0F11F460FF1BC06F5F7F4F8F4FE6
:101990009F4F16C0882311F096E911C0772321F0DC
:1019A0009EE8872F762F05C0662371F096E8862F74
:1019B00070E060E02AF09A95660F771F881FDAF7CB
:1019C000880F9695879597F90895990F0008550FF8
:1019D000AA0BE0E8FEEF16161706E807F907C0F0B5
:1019E00012161306E407F50798F0621B730B840BBD
:1019F000950B39F40A2661F0232B242B252B21F497
:101A000008950A2609F4A140A6958FEF811D811D36
:101A1000089597F99F6780E870E060E008959FEF70
:101A200080EC0895DF93CF931F930F93FF92EF9273
:101A3000DF927B018C01689405C0DA2EEF01AFD0F4
:101A4000FE01E894A5912591359145915591AEF30C
:101A5000EF0129DEFE019701A801DA9479F7DF9002
:101A6000EF90FF900F911F91CF91DF910895002487
:101A70000A941616170618060906089500240A94F3
:101A800012161306140605060895C9CF50D0E8F3C0
:101A9000E894E0E0BB279F57F0F02AED3FE049ECE7
:101AA00006C0EE0FBB0F661F771F881F28F0B23AE3
:101AB00062077307840728F0B25A620B730B840B1A
:101AC000E3959A9572F7803830F49A95BB0F661FAC
:101AD000771F881FD2F790483BC1092E0394000C52
:101AE00011F4882352F0BB0F40F4BF2B11F460FFB8
:101AF00004C06F5F7F4F8F4F9F4F0895EF93E0FFBC
:101B000006C0A2EA2AED3FE049EC5FEBCCDDE5DF61
:101B10000F90039401FC9058E9EBF0E02CC157FDC5
:101B20009058440F551F59F05F3F71F04795880F4B
:101B300097FB991F61F09F3F79F0879508951216E2
:101B400013061406551FF2CF4695F1DF08C016168E
:101B500017061806991FF1CF86957105610508943F
:101B60000895E894BB2766277727CB0197F9089556
:101B70002CDF08F48FEF08959B01AC0160E070E06A
:101B800080E89FE34CCE0BD0A8CF71DF28F076DF42
:101B900018F0952309F03DCF42CF1124E3CFBFDFEA
:101BA000A0F3959FD1F3950F50E0551F629FF00170
:101BB000729FBB27F00DB11D639FAA27F00DB11DC9
:101BC000AA1F649F6627B00DA11D661F829F222752
:101BD000B00DA11D621F739FB00DA11D621F839FD9
:101BE000A00D611D221F749F3327A00D611D231FAF
:101BF000849F600D211D822F762F6A2F11249F57FD
:101C000050408AF0E1F088234AF0EE0FFF1FBB1F1F
:101C1000661F771F881F91505040A9F79E3F5105BE
:101C200070F0F7CE9FCF5F3FECF3983EDCF38695E4
:101C300077956795B795F795E7959F5FC1F7FE2B69
:101C4000880F911D9695879597F9089570DFE0F0BC
:101C50009E37D8F09639B8F49E3848F4672F782F1D
:101C60008827985FF9CF86957795679593959539ED
:101C7000D0F3B62FB1706B0F711D811D20F48795C5
:101C800077956795939547C061C06CCF11F40EF4BA
:101C9000C6CE5CC04CDFD0F39923D9F3CEF39F5767
:101CA000550B87FF61D00024A0E640EA90018058E0
:101CB0005695979528F4805C660F771F881F20F053
:101CC00026173707480730F4621B730B840B202953
:101CD00031294A2BA69517940794202531254A27A8
:101CE00058F7660F771F881F20F026173707480719
:101CF00030F4620B730B840B200D311D411DA09538
:101D000081F7B901842F9158880F9695879508958A
:101D10009B01AC0138CF882371F4772321F09850D0
:101D2000872B762F07C0662311F499270DC0905199
:101D3000862B70E060E02AF09A95660F771F881F67
:101D4000DAF7880F9695879597F908959F3F31F0B8
:101D5000915020F4879577956795B795880F911DD9
:101D60009695879597F9089591505040660F771F83
:101D7000881FD2F708959F938F937F936F93FF935C
:101D8000EF939B01AC01FFDEEF91FF914BDE2F91B2
:101D90003F914F915F91F7CE97FB072E16F4009479
:101DA00006D077FD08D01AD007FC05D03EF49095F8
:101DB00081959F4F0895709561957F4F0895A29FDB
:101DC000B001B39FC001A39F700D811D1124911D0F
:101DD000B29F700D811D1124911D0895AA1BBB1B7C
:101DE00051E107C0AA1FBB1FA617B70710F0A61B1B
:101DF000B70B881F991F5A95A9F780959095BC013C
:081E0000CD010895F894FFCF15
:041E08006400010071
:00000001FF
